{
  "_format": "hh-sol-artifact-1",
  "contractName": "BasicNFT",
  "sourceName": "contracts/NicNFT.sol",
  "abi": [
    {
      "inputs": [],
      "stateMutability": "nonpayable",
      "type": "constructor"
    },
    {
      "inputs": [
        {
          "internalType": "address",
          "name": "sender",
          "type": "address"
        },
        {
          "internalType": "uint256",
          "name": "tokenId",
          "type": "uint256"
        },
        {
          "internalType": "address",
          "name": "owner",
          "type": "address"
        }
      ],
      "name": "ERC721IncorrectOwner",
      "type": "error"
    },
    {
      "inputs": [
        {
          "internalType": "address",
          "name": "operator",
          "type": "address"
        },
        {
          "internalType": "uint256",
          "name": "tokenId",
          "type": "uint256"
        }
      ],
      "name": "ERC721InsufficientApproval",
      "type": "error"
    },
    {
      "inputs": [
        {
          "internalType": "address",
          "name": "approver",
          "type": "address"
        }
      ],
      "name": "ERC721InvalidApprover",
      "type": "error"
    },
    {
      "inputs": [
        {
          "internalType": "address",
          "name": "operator",
          "type": "address"
        }
      ],
      "name": "ERC721InvalidOperator",
      "type": "error"
    },
    {
      "inputs": [
        {
          "internalType": "address",
          "name": "owner",
          "type": "address"
        }
      ],
      "name": "ERC721InvalidOwner",
      "type": "error"
    },
    {
      "inputs": [
        {
          "internalType": "address",
          "name": "receiver",
          "type": "address"
        }
      ],
      "name": "ERC721InvalidReceiver",
      "type": "error"
    },
    {
      "inputs": [
        {
          "internalType": "address",
          "name": "sender",
          "type": "address"
        }
      ],
      "name": "ERC721InvalidSender",
      "type": "error"
    },
    {
      "inputs": [
        {
          "internalType": "uint256",
          "name": "tokenId",
          "type": "uint256"
        }
      ],
      "name": "ERC721NonexistentToken",
      "type": "error"
    },
    {
      "inputs": [
        {
          "internalType": "address",
          "name": "owner",
          "type": "address"
        }
      ],
      "name": "OwnableInvalidOwner",
      "type": "error"
    },
    {
      "inputs": [
        {
          "internalType": "address",
          "name": "account",
          "type": "address"
        }
      ],
      "name": "OwnableUnauthorizedAccount",
      "type": "error"
    },
    {
      "anonymous": false,
      "inputs": [
        {
          "indexed": true,
          "internalType": "address",
          "name": "owner",
          "type": "address"
        },
        {
          "indexed": true,
          "internalType": "address",
          "name": "approved",
          "type": "address"
        },
        {
          "indexed": true,
          "internalType": "uint256",
          "name": "tokenId",
          "type": "uint256"
        }
      ],
      "name": "Approval",
      "type": "event"
    },
    {
      "anonymous": false,
      "inputs": [
        {
          "indexed": true,
          "internalType": "address",
          "name": "owner",
          "type": "address"
        },
        {
          "indexed": true,
          "internalType": "address",
          "name": "operator",
          "type": "address"
        },
        {
          "indexed": false,
          "internalType": "bool",
          "name": "approved",
          "type": "bool"
        }
      ],
      "name": "ApprovalForAll",
      "type": "event"
    },
    {
      "anonymous": false,
      "inputs": [
        {
          "indexed": false,
          "internalType": "uint256",
          "name": "_fromTokenId",
          "type": "uint256"
        },
        {
          "indexed": false,
          "internalType": "uint256",
          "name": "_toTokenId",
          "type": "uint256"
        }
      ],
      "name": "BatchMetadataUpdate",
      "type": "event"
    },
    {
      "anonymous": false,
      "inputs": [
        {
          "indexed": false,
          "internalType": "uint256",
          "name": "_tokenId",
          "type": "uint256"
        }
      ],
      "name": "MetadataUpdate",
      "type": "event"
    },
    {
      "anonymous": false,
      "inputs": [
        {
          "indexed": true,
          "internalType": "address",
          "name": "previousOwner",
          "type": "address"
        },
        {
          "indexed": true,
          "internalType": "address",
          "name": "newOwner",
          "type": "address"
        }
      ],
      "name": "OwnershipTransferred",
      "type": "event"
    },
    {
      "anonymous": false,
      "inputs": [
        {
          "indexed": true,
          "internalType": "address",
          "name": "from",
          "type": "address"
        },
        {
          "indexed": true,
          "internalType": "address",
          "name": "to",
          "type": "address"
        },
        {
          "indexed": true,
          "internalType": "uint256",
          "name": "tokenId",
          "type": "uint256"
        }
      ],
      "name": "Transfer",
      "type": "event"
    },
    {
      "inputs": [
        {
          "internalType": "address",
          "name": "to",
          "type": "address"
        },
        {
          "internalType": "uint256",
          "name": "tokenId",
          "type": "uint256"
        }
      ],
      "name": "approve",
      "outputs": [],
      "stateMutability": "nonpayable",
      "type": "function"
    },
    {
      "inputs": [
        {
          "internalType": "address",
          "name": "owner",
          "type": "address"
        }
      ],
      "name": "balanceOf",
      "outputs": [
        {
          "internalType": "uint256",
          "name": "",
          "type": "uint256"
        }
      ],
      "stateMutability": "view",
      "type": "function"
    },
    {
      "inputs": [
        {
          "internalType": "uint256",
          "name": "tokenId",
          "type": "uint256"
        }
      ],
      "name": "getApproved",
      "outputs": [
        {
          "internalType": "address",
          "name": "",
          "type": "address"
        }
      ],
      "stateMutability": "view",
      "type": "function"
    },
    {
      "inputs": [],
      "name": "getCurrentTokenId",
      "outputs": [
        {
          "internalType": "uint256",
          "name": "",
          "type": "uint256"
        }
      ],
      "stateMutability": "view",
      "type": "function"
    },
    {
      "inputs": [
        {
          "internalType": "address",
          "name": "owner",
          "type": "address"
        },
        {
          "internalType": "address",
          "name": "operator",
          "type": "address"
        }
      ],
      "name": "isApprovedForAll",
      "outputs": [
        {
          "internalType": "bool",
          "name": "",
          "type": "bool"
        }
      ],
      "stateMutability": "view",
      "type": "function"
    },
    {
      "inputs": [],
      "name": "maxSupply",
      "outputs": [
        {
          "internalType": "uint256",
          "name": "",
          "type": "uint256"
        }
      ],
      "stateMutability": "view",
      "type": "function"
    },
    {
      "inputs": [
        {
          "internalType": "string",
          "name": "uri",
          "type": "string"
        }
      ],
      "name": "mint",
      "outputs": [],
      "stateMutability": "payable",
      "type": "function"
    },
    {
      "inputs": [],
      "name": "mintPrice",
      "outputs": [
        {
          "internalType": "uint256",
          "name": "",
          "type": "uint256"
        }
      ],
      "stateMutability": "view",
      "type": "function"
    },
    {
      "inputs": [
        {
          "internalType": "address",
          "name": "to",
          "type": "address"
        },
        {
          "internalType": "string",
          "name": "uri",
          "type": "string"
        }
      ],
      "name": "mintTo",
      "outputs": [],
      "stateMutability": "nonpayable",
      "type": "function"
    },
    {
      "inputs": [],
      "name": "name",
      "outputs": [
        {
          "internalType": "string",
          "name": "",
          "type": "string"
        }
      ],
      "stateMutability": "view",
      "type": "function"
    },
    {
      "inputs": [],
      "name": "owner",
      "outputs": [
        {
          "internalType": "address",
          "name": "",
          "type": "address"
        }
      ],
      "stateMutability": "view",
      "type": "function"
    },
    {
      "inputs": [
        {
          "internalType": "uint256",
          "name": "tokenId",
          "type": "uint256"
        }
      ],
      "name": "ownerOf",
      "outputs": [
        {
          "internalType": "address",
          "name": "",
          "type": "address"
        }
      ],
      "stateMutability": "view",
      "type": "function"
    },
    {
      "inputs": [],
      "name": "renounceOwnership",
      "outputs": [],
      "stateMutability": "nonpayable",
      "type": "function"
    },
    {
      "inputs": [
        {
          "internalType": "address",
          "name": "from",
          "type": "address"
        },
        {
          "internalType": "address",
          "name": "to",
          "type": "address"
        },
        {
          "internalType": "uint256",
          "name": "tokenId",
          "type": "uint256"
        }
      ],
      "name": "safeTransferFrom",
      "outputs": [],
      "stateMutability": "nonpayable",
      "type": "function"
    },
    {
      "inputs": [
        {
          "internalType": "address",
          "name": "from",
          "type": "address"
        },
        {
          "internalType": "address",
          "name": "to",
          "type": "address"
        },
        {
          "internalType": "uint256",
          "name": "tokenId",
          "type": "uint256"
        },
        {
          "internalType": "bytes",
          "name": "data",
          "type": "bytes"
        }
      ],
      "name": "safeTransferFrom",
      "outputs": [],
      "stateMutability": "nonpayable",
      "type": "function"
    },
    {
      "inputs": [
        {
          "internalType": "address",
          "name": "operator",
          "type": "address"
        },
        {
          "internalType": "bool",
          "name": "approved",
          "type": "bool"
        }
      ],
      "name": "setApprovalForAll",
      "outputs": [],
      "stateMutability": "nonpayable",
      "type": "function"
    },
    {
      "inputs": [
        {
          "internalType": "uint256",
          "name": "_price",
          "type": "uint256"
        }
      ],
      "name": "setMintPrice",
      "outputs": [],
      "stateMutability": "nonpayable",
      "type": "function"
    },
    {
      "inputs": [
        {
          "internalType": "bytes4",
          "name": "interfaceId",
          "type": "bytes4"
        }
      ],
      "name": "supportsInterface",
      "outputs": [
        {
          "internalType": "bool",
          "name": "",
          "type": "bool"
        }
      ],
      "stateMutability": "view",
      "type": "function"
    },
    {
      "inputs": [],
      "name": "symbol",
      "outputs": [
        {
          "internalType": "string",
          "name": "",
          "type": "string"
        }
      ],
      "stateMutability": "view",
      "type": "function"
    },
    {
      "inputs": [
        {
          "internalType": "uint256",
          "name": "tokenId",
          "type": "uint256"
        }
      ],
      "name": "tokenURI",
      "outputs": [
        {
          "internalType": "string",
          "name": "",
          "type": "string"
        }
      ],
      "stateMutability": "view",
      "type": "function"
    },
    {
      "inputs": [
        {
          "internalType": "address",
          "name": "from",
          "type": "address"
        },
        {
          "internalType": "address",
          "name": "to",
          "type": "address"
        },
        {
          "internalType": "uint256",
          "name": "tokenId",
          "type": "uint256"
        }
      ],
      "name": "transferFrom",
      "outputs": [],
      "stateMutability": "nonpayable",
      "type": "function"
    },
    {
      "inputs": [
        {
          "internalType": "address",
          "name": "newOwner",
          "type": "address"
        }
      ],
      "name": "transferOwnership",
      "outputs": [],
      "stateMutability": "nonpayable",
      "type": "function"
    },
    {
      "inputs": [],
      "name": "withdraw",
      "outputs": [],
      "stateMutability": "nonpayable",
      "type": "function"
    }
  ],
  "bytecode": "0x6080604052662386f26fc10000600955600a805534801561001f57600080fd5b50336040518060400160405280600681526020017f4e69634e465400000000000000000000000000000000000000000000000000008152506040518060400160405280600481526020017f4e414c5400000000000000000000000000000000000000000000000000000000815250816000908161009c919061044c565b5080600190816100ac919061044c565b505050600073ffffffffffffffffffffffffffffffffffffffff168173ffffffffffffffffffffffffffffffffffffffff16036101215760006040517f1e4fbdf7000000000000000000000000000000000000000000000000000000008152600401610118919061055f565b60405180910390fd5b6101308161013660201b60201c565b5061057a565b6000600760009054906101000a900473ffffffffffffffffffffffffffffffffffffffff16905081600760006101000a81548173ffffffffffffffffffffffffffffffffffffffff021916908373ffffffffffffffffffffffffffffffffffffffff1602179055508173ffffffffffffffffffffffffffffffffffffffff168173ffffffffffffffffffffffffffffffffffffffff167f8be0079c531659141344cd1fd0a4f28419497f9722a3daafe3b4186f6b6457e060405160405180910390a35050565b600081519050919050565b7f4e487b7100000000000000000000000000000000000000000000000000000000600052604160045260246000fd5b7f4e487b7100000000000000000000000000000000000000000000000000000000600052602260045260246000fd5b6000600282049050600182168061027d57607f821691505b6020821081036102905761028f610236565b5b50919050565b60008190508160005260206000209050919050565b60006020601f8301049050919050565b600082821b905092915050565b6000600883026102f87fffffffffffffffffffffffffffffffffffffffffffffffffffffffffffffffff826102bb565b61030286836102bb565b95508019841693508086168417925050509392505050565b6000819050919050565b6000819050919050565b600061034961034461033f8461031a565b610324565b61031a565b9050919050565b6000819050919050565b6103638361032e565b61037761036f82610350565b8484546102c8565b825550505050565b600090565b61038c61037f565b61039781848461035a565b505050565b5b818110156103bb576103b0600082610384565b60018101905061039d565b5050565b601f821115610400576103d181610296565b6103da846102ab565b810160208510156103e9578190505b6103fd6103f5856102ab565b83018261039c565b50505b505050565b600082821c905092915050565b600061042360001984600802610405565b1980831691505092915050565b600061043c8383610412565b9150826002028217905092915050565b610455826101fc565b67ffffffffffffffff81111561046e5761046d610207565b5b6104788254610265565b6104838282856103bf565b600060209050601f8311600181146104b657600084156104a4578287015190505b6104ae8582610430565b865550610516565b601f1984166104c486610296565b60005b828110156104ec578489015182556001820191506020850194506020810190506104c7565b868310156105095784890151610505601f891682610412565b8355505b6001600288020188555050505b505050505050565b600073ffffffffffffffffffffffffffffffffffffffff82169050919050565b60006105498261051e565b9050919050565b6105598161053e565b82525050565b60006020820190506105746000830184610550565b92915050565b612b21806105896000396000f3fe60806040526004361061013f5760003560e01c806370a08231116100b6578063c87b56dd1161006f578063c87b56dd14610433578063d5abeb0114610470578063d85d3d271461049b578063e985e9c5146104b7578063f2fde38b146104f4578063f4a0a5281461051d5761013f565b806370a0823114610337578063715018a6146103745780638da5cb5b1461038b57806395d89b41146103b6578063a22cb465146103e1578063b88d4fde1461040a5761013f565b806323b872dd1161010857806323b872dd1461023b5780633ccfd60b1461026457806342842e0e1461027b57806356189236146102a45780636352211e146102cf5780636817c76c1461030c5761013f565b806275a3171461014457806301ffc9a71461016d57806306fdde03146101aa578063081812fc146101d5578063095ea7b314610212575b600080fd5b34801561015057600080fd5b5061016b60048036038101906101669190611fa4565b610546565b005b34801561017957600080fd5b50610194600480360381019061018f9190612058565b6105c8565b6040516101a191906120a0565b60405180910390f35b3480156101b657600080fd5b506101bf6105da565b6040516101cc919061213a565b60405180910390f35b3480156101e157600080fd5b506101fc60048036038101906101f79190612192565b61066c565b60405161020991906121ce565b60405180910390f35b34801561021e57600080fd5b50610239600480360381019061023491906121e9565b610688565b005b34801561024757600080fd5b50610262600480360381019061025d9190612229565b61069e565b005b34801561027057600080fd5b506102796107a0565b005b34801561028757600080fd5b506102a2600480360381019061029d9190612229565b6107fe565b005b3480156102b057600080fd5b506102b961081e565b6040516102c6919061228b565b60405180910390f35b3480156102db57600080fd5b506102f660048036038101906102f19190612192565b610828565b60405161030391906121ce565b60405180910390f35b34801561031857600080fd5b5061032161083a565b60405161032e919061228b565b60405180910390f35b34801561034357600080fd5b5061035e600480360381019061035991906122a6565b610840565b60405161036b919061228b565b60405180910390f35b34801561038057600080fd5b506103896108fa565b005b34801561039757600080fd5b506103a061090e565b6040516103ad91906121ce565b60405180910390f35b3480156103c257600080fd5b506103cb610938565b6040516103d8919061213a565b60405180910390f35b3480156103ed57600080fd5b50610408600480360381019061040391906122ff565b6109ca565b005b34801561041657600080fd5b50610431600480360381019061042c91906123e0565b6109e0565b005b34801561043f57600080fd5b5061045a60048036038101906104559190612192565b610a05565b604051610467919061213a565b60405180910390f35b34801561047c57600080fd5b50610485610a17565b604051610492919061228b565b60405180910390f35b6104b560048036038101906104b09190612463565b610a1d565b005b3480156104c357600080fd5b506104de60048036038101906104d991906124ac565b610adb565b6040516104eb91906120a0565b60405180910390f35b34801561050057600080fd5b5061051b600480360381019061051691906122a6565b610b6f565b005b34801561052957600080fd5b50610544600480360381019061053f9190612192565b610bf5565b005b61054e610c07565b600a5460085410610594576040517f08c379a000000000000000000000000000000000000000000000000000000000815260040161058b90612538565b60405180910390fd5b6000600860008154809291906105a990612587565b9190505590506105b98382610c8e565b6105c38183610cac565b505050565b60006105d382610d08565b9050919050565b6060600080546105e9906125fe565b80601f0160208091040260200160405190810160405280929190818152602001828054610615906125fe565b80156106625780601f1061063757610100808354040283529160200191610662565b820191906000526020600020905b81548152906001019060200180831161064557829003601f168201915b5050505050905090565b600061067782610d69565b5061068182610df1565b9050919050565b61069a8282610695610e2e565b610e36565b5050565b600073ffffffffffffffffffffffffffffffffffffffff168273ffffffffffffffffffffffffffffffffffffffff16036107105760006040517f64a0ae9200000000000000000000000000000000000000000000000000000000815260040161070791906121ce565b60405180910390fd5b6000610724838361071f610e2e565b610e48565b90508373ffffffffffffffffffffffffffffffffffffffff168173ffffffffffffffffffffffffffffffffffffffff161461079a578382826040517f64283d7b0000000000000000000000000000000000000000000000000000000081526004016107919392919061262f565b60405180910390fd5b50505050565b6107a8610c07565b60004790506107b561090e565b73ffffffffffffffffffffffffffffffffffffffff166108fc829081150290604051600060405180830381858888f193505050501580156107fa573d6000803e3d6000fd5b5050565b610819838383604051806020016040528060008152506109e0565b505050565b6000600854905090565b600061083382610d69565b9050919050565b60095481565b60008073ffffffffffffffffffffffffffffffffffffffff168273ffffffffffffffffffffffffffffffffffffffff16036108b35760006040517f89c62b640000000000000000000000000000000000000000000000000000000081526004016108aa91906121ce565b60405180910390fd5b600360008373ffffffffffffffffffffffffffffffffffffffff1673ffffffffffffffffffffffffffffffffffffffff168152602001908152602001600020549050919050565b610902610c07565b61090c6000611062565b565b6000600760009054906101000a900473ffffffffffffffffffffffffffffffffffffffff16905090565b606060018054610947906125fe565b80601f0160208091040260200160405190810160405280929190818152602001828054610973906125fe565b80156109c05780601f10610995576101008083540402835291602001916109c0565b820191906000526020600020905b8154815290600101906020018083116109a357829003601f168201915b5050505050905090565b6109dc6109d5610e2e565b8383611128565b5050565b6109eb84848461069e565b6109ff6109f6610e2e565b85858585611297565b50505050565b6060610a1082611448565b9050919050565b600a5481565b600954341015610a62576040517f08c379a0000000000000000000000000000000000000000000000000000000008152600401610a59906126b2565b60405180910390fd5b600a5460085410610aa8576040517f08c379a0000000000000000000000000000000000000000000000000000000008152600401610a9f90612538565b60405180910390fd5b600060086000815480929190610abd90612587565b919050559050610acd3382610c8e565b610ad78183610cac565b5050565b6000600560008473ffffffffffffffffffffffffffffffffffffffff1673ffffffffffffffffffffffffffffffffffffffff16815260200190815260200160002060008373ffffffffffffffffffffffffffffffffffffffff1673ffffffffffffffffffffffffffffffffffffffff16815260200190815260200160002060009054906101000a900460ff16905092915050565b610b77610c07565b600073ffffffffffffffffffffffffffffffffffffffff168173ffffffffffffffffffffffffffffffffffffffff1603610be95760006040517f1e4fbdf7000000000000000000000000000000000000000000000000000000008152600401610be091906121ce565b60405180910390fd5b610bf281611062565b50565b610bfd610c07565b8060098190555050565b610c0f610e2e565b73ffffffffffffffffffffffffffffffffffffffff16610c2d61090e565b73ffffffffffffffffffffffffffffffffffffffff1614610c8c57610c50610e2e565b6040517f118cdaa7000000000000000000000000000000000000000000000000000000008152600401610c8391906121ce565b60405180910390fd5b565b610ca882826040518060200160405280600081525061155b565b5050565b80600660008481526020019081526020016000209081610ccc919061287e565b507ff8e1a15aba9398e019f0b49df1a4fde98ee17ae345cb5f6b5e2c27f5033e8ce782604051610cfc919061228b565b60405180910390a15050565b6000634906490660e01b7bffffffffffffffffffffffffffffffffffffffffffffffffffffffff1916827bffffffffffffffffffffffffffffffffffffffffffffffffffffffff19161480610d625750610d618261157f565b5b9050919050565b600080610d7583611661565b9050600073ffffffffffffffffffffffffffffffffffffffff168173ffffffffffffffffffffffffffffffffffffffff1603610de857826040517f7e273289000000000000000000000000000000000000000000000000000000008152600401610ddf919061228b565b60405180910390fd5b80915050919050565b60006004600083815260200190815260200160002060009054906101000a900473ffffffffffffffffffffffffffffffffffffffff169050919050565b600033905090565b610e43838383600161169e565b505050565b600080610e5484611661565b9050600073ffffffffffffffffffffffffffffffffffffffff168373ffffffffffffffffffffffffffffffffffffffff1614610e9657610e95818486611863565b5b600073ffffffffffffffffffffffffffffffffffffffff168173ffffffffffffffffffffffffffffffffffffffff1614610f2757610ed860008560008061169e565b6001600360008373ffffffffffffffffffffffffffffffffffffffff1673ffffffffffffffffffffffffffffffffffffffff168152602001908152602001600020600082825403925050819055505b600073ffffffffffffffffffffffffffffffffffffffff168573ffffffffffffffffffffffffffffffffffffffff1614610faa576001600360008773ffffffffffffffffffffffffffffffffffffffff1673ffffffffffffffffffffffffffffffffffffffff168152602001908152602001600020600082825401925050819055505b846002600086815260200190815260200160002060006101000a81548173ffffffffffffffffffffffffffffffffffffffff021916908373ffffffffffffffffffffffffffffffffffffffff160217905550838573ffffffffffffffffffffffffffffffffffffffff168273ffffffffffffffffffffffffffffffffffffffff167fddf252ad1be2c89b69c2b068fc378daa952ba7f163c4a11628f55a4df523b3ef60405160405180910390a4809150509392505050565b6000600760009054906101000a900473ffffffffffffffffffffffffffffffffffffffff16905081600760006101000a81548173ffffffffffffffffffffffffffffffffffffffff021916908373ffffffffffffffffffffffffffffffffffffffff1602179055508173ffffffffffffffffffffffffffffffffffffffff168173ffffffffffffffffffffffffffffffffffffffff167f8be0079c531659141344cd1fd0a4f28419497f9722a3daafe3b4186f6b6457e060405160405180910390a35050565b600073ffffffffffffffffffffffffffffffffffffffff168273ffffffffffffffffffffffffffffffffffffffff160361119957816040517f5b08ba1800000000000000000000000000000000000000000000000000000000815260040161119091906121ce565b60405180910390fd5b80600560008573ffffffffffffffffffffffffffffffffffffffff1673ffffffffffffffffffffffffffffffffffffffff16815260200190815260200160002060008473ffffffffffffffffffffffffffffffffffffffff1673ffffffffffffffffffffffffffffffffffffffff16815260200190815260200160002060006101000a81548160ff0219169083151502179055508173ffffffffffffffffffffffffffffffffffffffff168373ffffffffffffffffffffffffffffffffffffffff167f17307eab39ab6107e8899845ad3d59bd9653f200f220920489ca2b5937696c318360405161128a91906120a0565b60405180910390a3505050565b60008373ffffffffffffffffffffffffffffffffffffffff163b1115611441578273ffffffffffffffffffffffffffffffffffffffff1663150b7a02868685856040518563ffffffff1660e01b81526004016112f694939291906129a5565b6020604051808303816000875af192505050801561133257506040513d601f19601f8201168201806040525081019061132f9190612a06565b60015b6113b6573d8060008114611362576040519150601f19603f3d011682016040523d82523d6000602084013e611367565b606091505b5060008151036113ae57836040517f64a0ae920000000000000000000000000000000000000000000000000000000081526004016113a591906121ce565b60405180910390fd5b805160208201fd5b63150b7a0260e01b7bffffffffffffffffffffffffffffffffffffffffffffffffffffffff1916817bffffffffffffffffffffffffffffffffffffffffffffffffffffffff19161461143f57836040517f64a0ae9200000000000000000000000000000000000000000000000000000000815260040161143691906121ce565b60405180910390fd5b505b5050505050565b606061145382610d69565b506000600660008481526020019081526020016000208054611474906125fe565b80601f01602080910402602001604051908101604052809291908181526020018280546114a0906125fe565b80156114ed5780601f106114c2576101008083540402835291602001916114ed565b820191906000526020600020905b8154815290600101906020018083116114d057829003601f168201915b5050505050905060006114fe611927565b90506000815103611513578192505050611556565b600082511115611548578082604051602001611530929190612a6f565b60405160208183030381529060405292505050611556565b6115518461193e565b925050505b919050565b61156583836119a7565b61157a611570610e2e565b6000858585611297565b505050565b60007f80ac58cd000000000000000000000000000000000000000000000000000000007bffffffffffffffffffffffffffffffffffffffffffffffffffffffff1916827bffffffffffffffffffffffffffffffffffffffffffffffffffffffff1916148061164a57507f5b5e139f000000000000000000000000000000000000000000000000000000007bffffffffffffffffffffffffffffffffffffffffffffffffffffffff1916827bffffffffffffffffffffffffffffffffffffffffffffffffffffffff1916145b8061165a575061165982611aa0565b5b9050919050565b60006002600083815260200190815260200160002060009054906101000a900473ffffffffffffffffffffffffffffffffffffffff169050919050565b80806116d75750600073ffffffffffffffffffffffffffffffffffffffff168273ffffffffffffffffffffffffffffffffffffffff1614155b1561180b5760006116e784610d69565b9050600073ffffffffffffffffffffffffffffffffffffffff168373ffffffffffffffffffffffffffffffffffffffff161415801561175257508273ffffffffffffffffffffffffffffffffffffffff168173ffffffffffffffffffffffffffffffffffffffff1614155b801561176557506117638184610adb565b155b156117a757826040517fa9fbf51f00000000000000000000000000000000000000000000000000000000815260040161179e91906121ce565b60405180910390fd5b811561180957838573ffffffffffffffffffffffffffffffffffffffff168273ffffffffffffffffffffffffffffffffffffffff167f8c5be1e5ebec7d5bd14f71427d1e84f3dd0314c0f7b2291e5b200ac8c7c3b92560405160405180910390a45b505b836004600085815260200190815260200160002060006101000a81548173ffffffffffffffffffffffffffffffffffffffff021916908373ffffffffffffffffffffffffffffffffffffffff16021790555050505050565b61186e838383611b0a565b61192257600073ffffffffffffffffffffffffffffffffffffffff168373ffffffffffffffffffffffffffffffffffffffff16036118e357806040517f7e2732890000000000000000000000000000000000000000000000000000000081526004016118da919061228b565b60405180910390fd5b81816040517f177e802f000000000000000000000000000000000000000000000000000000008152600401611919929190612a93565b60405180910390fd5b505050565b606060405180602001604052806000815250905090565b606061194982610d69565b506000611954611927565b90506000815111611974576040518060200160405280600081525061199f565b8061197e84611bcb565b60405160200161198f929190612a6f565b6040516020818303038152906040525b915050919050565b600073ffffffffffffffffffffffffffffffffffffffff168273ffffffffffffffffffffffffffffffffffffffff1603611a195760006040517f64a0ae92000000000000000000000000000000000000000000000000000000008152600401611a1091906121ce565b60405180910390fd5b6000611a2783836000610e48565b9050600073ffffffffffffffffffffffffffffffffffffffff168173ffffffffffffffffffffffffffffffffffffffff1614611a9b5760006040517f73c6ac6e000000000000000000000000000000000000000000000000000000008152600401611a9291906121ce565b60405180910390fd5b505050565b60007f01ffc9a7000000000000000000000000000000000000000000000000000000007bffffffffffffffffffffffffffffffffffffffffffffffffffffffff1916827bffffffffffffffffffffffffffffffffffffffffffffffffffffffff1916149050919050565b60008073ffffffffffffffffffffffffffffffffffffffff168373ffffffffffffffffffffffffffffffffffffffff1614158015611bc257508273ffffffffffffffffffffffffffffffffffffffff168473ffffffffffffffffffffffffffffffffffffffff161480611b835750611b828484610adb565b5b80611bc157508273ffffffffffffffffffffffffffffffffffffffff16611ba983610df1565b73ffffffffffffffffffffffffffffffffffffffff16145b5b90509392505050565b606060006001611bda84611c99565b01905060008167ffffffffffffffff811115611bf957611bf8611e79565b5b6040519080825280601f01601f191660200182016040528015611c2b5781602001600182028036833780820191505090505b509050600082602083010190505b600115611c8e578080600190039150507f3031323334353637383961626364656600000000000000000000000000000000600a86061a8153600a8581611c8257611c81612abc565b5b04945060008503611c39575b819350505050919050565b600080600090507a184f03e93ff9f4daa797ed6e38ed64bf6a1f0100000000000000008310611cf7577a184f03e93ff9f4daa797ed6e38ed64bf6a1f0100000000000000008381611ced57611cec612abc565b5b0492506040810190505b6d04ee2d6d415b85acef81000000008310611d34576d04ee2d6d415b85acef81000000008381611d2a57611d29612abc565b5b0492506020810190505b662386f26fc100008310611d6357662386f26fc100008381611d5957611d58612abc565b5b0492506010810190505b6305f5e1008310611d8c576305f5e1008381611d8257611d81612abc565b5b0492506008810190505b6127108310611db1576127108381611da757611da6612abc565b5b0492506004810190505b60648310611dd45760648381611dca57611dc9612abc565b5b0492506002810190505b600a8310611de3576001810190505b80915050919050565b6000604051905090565b600080fd5b600080fd5b600073ffffffffffffffffffffffffffffffffffffffff82169050919050565b6000611e2b82611e00565b9050919050565b611e3b81611e20565b8114611e4657600080fd5b50565b600081359050611e5881611e32565b92915050565b600080fd5b600080fd5b6000601f19601f8301169050919050565b7f4e487b7100000000000000000000000000000000000000000000000000000000600052604160045260246000fd5b611eb182611e68565b810181811067ffffffffffffffff82111715611ed057611ecf611e79565b5b80604052505050565b6000611ee3611dec565b9050611eef8282611ea8565b919050565b600067ffffffffffffffff821115611f0f57611f0e611e79565b5b611f1882611e68565b9050602081019050919050565b82818337600083830152505050565b6000611f47611f4284611ef4565b611ed9565b905082815260208101848484011115611f6357611f62611e63565b5b611f6e848285611f25565b509392505050565b600082601f830112611f8b57611f8a611e5e565b5b8135611f9b848260208601611f34565b91505092915050565b60008060408385031215611fbb57611fba611df6565b5b6000611fc985828601611e49565b925050602083013567ffffffffffffffff811115611fea57611fe9611dfb565b5b611ff685828601611f76565b9150509250929050565b60007fffffffff0000000000000000000000000000000000000000000000000000000082169050919050565b61203581612000565b811461204057600080fd5b50565b6000813590506120528161202c565b92915050565b60006020828403121561206e5761206d611df6565b5b600061207c84828501612043565b91505092915050565b60008115159050919050565b61209a81612085565b82525050565b60006020820190506120b56000830184612091565b92915050565b600081519050919050565b600082825260208201905092915050565b60005b838110156120f55780820151818401526020810190506120da565b60008484015250505050565b600061210c826120bb565b61211681856120c6565b93506121268185602086016120d7565b61212f81611e68565b840191505092915050565b600060208201905081810360008301526121548184612101565b905092915050565b6000819050919050565b61216f8161215c565b811461217a57600080fd5b50565b60008135905061218c81612166565b92915050565b6000602082840312156121a8576121a7611df6565b5b60006121b68482850161217d565b91505092915050565b6121c881611e20565b82525050565b60006020820190506121e360008301846121bf565b92915050565b60008060408385031215612200576121ff611df6565b5b600061220e85828601611e49565b925050602061221f8582860161217d565b9150509250929050565b60008060006060848603121561224257612241611df6565b5b600061225086828701611e49565b935050602061226186828701611e49565b92505060406122728682870161217d565b9150509250925092565b6122858161215c565b82525050565b60006020820190506122a0600083018461227c565b92915050565b6000602082840312156122bc576122bb611df6565b5b60006122ca84828501611e49565b91505092915050565b6122dc81612085565b81146122e757600080fd5b50565b6000813590506122f9816122d3565b92915050565b6000806040838503121561231657612315611df6565b5b600061232485828601611e49565b9250506020612335858286016122ea565b9150509250929050565b600067ffffffffffffffff82111561235a57612359611e79565b5b61236382611e68565b9050602081019050919050565b600061238361237e8461233f565b611ed9565b90508281526020810184848401111561239f5761239e611e63565b5b6123aa848285611f25565b509392505050565b600082601f8301126123c7576123c6611e5e565b5b81356123d7848260208601612370565b91505092915050565b600080600080608085870312156123fa576123f9611df6565b5b600061240887828801611e49565b945050602061241987828801611e49565b935050604061242a8782880161217d565b925050606085013567ffffffffffffffff81111561244b5761244a611dfb565b5b612457878288016123b2565b91505092959194509250565b60006020828403121561247957612478611df6565b5b600082013567ffffffffffffffff81111561249757612496611dfb565b5b6124a384828501611f76565b91505092915050565b600080604083850312156124c3576124c2611df6565b5b60006124d185828601611e49565b92505060206124e285828601611e49565b9150509250929050565b7f4d617820737570706c7920726561636865640000000000000000000000000000600082015250565b60006125226012836120c6565b915061252d826124ec565b602082019050919050565b6000602082019050818103600083015261255181612515565b9050919050565b7f4e487b7100000000000000000000000000000000000000000000000000000000600052601160045260246000fd5b60006125928261215c565b91507fffffffffffffffffffffffffffffffffffffffffffffffffffffffffffffffff82036125c4576125c3612558565b5b600182019050919050565b7f4e487b7100000000000000000000000000000000000000000000000000000000600052602260045260246000fd5b6000600282049050600182168061261657607f821691505b602082108103612629576126286125cf565b5b50919050565b600060608201905061264460008301866121bf565b612651602083018561227c565b61265e60408301846121bf565b949350505050565b7f496e73756666696369656e74207061796d656e74000000000000000000000000600082015250565b600061269c6014836120c6565b91506126a782612666565b602082019050919050565b600060208201905081810360008301526126cb8161268f565b9050919050565b60008190508160005260206000209050919050565b60006020601f8301049050919050565b600082821b905092915050565b6000600883026127347fffffffffffffffffffffffffffffffffffffffffffffffffffffffffffffffff826126f7565b61273e86836126f7565b95508019841693508086168417925050509392505050565b6000819050919050565b600061277b6127766127718461215c565b612756565b61215c565b9050919050565b6000819050919050565b61279583612760565b6127a96127a182612782565b848454612704565b825550505050565b600090565b6127be6127b1565b6127c981848461278c565b505050565b5b818110156127ed576127e26000826127b6565b6001810190506127cf565b5050565b601f82111561283257612803816126d2565b61280c846126e7565b8101602085101561281b578190505b61282f612827856126e7565b8301826127ce565b50505b505050565b600082821c905092915050565b600061285560001984600802612837565b1980831691505092915050565b600061286e8383612844565b9150826002028217905092915050565b612887826120bb565b67ffffffffffffffff8111156128a05761289f611e79565b5b6128aa82546125fe565b6128b58282856127f1565b600060209050601f8311600181146128e857600084156128d6578287015190505b6128e08582612862565b865550612948565b601f1984166128f6866126d2565b60005b8281101561291e578489015182556001820191506020850194506020810190506128f9565b8683101561293b5784890151612937601f891682612844565b8355505b6001600288020188555050505b505050505050565b600081519050919050565b600082825260208201905092915050565b600061297782612950565b612981818561295b565b93506129918185602086016120d7565b61299a81611e68565b840191505092915050565b60006080820190506129ba60008301876121bf565b6129c760208301866121bf565b6129d4604083018561227c565b81810360608301526129e6818461296c565b905095945050505050565b600081519050612a008161202c565b92915050565b600060208284031215612a1c57612a1b611df6565b5b6000612a2a848285016129f1565b91505092915050565b600081905092915050565b6000612a49826120bb565b612a538185612a33565b9350612a638185602086016120d7565b80840191505092915050565b6000612a7b8285612a3e565b9150612a878284612a3e565b91508190509392505050565b6000604082019050612aa860008301856121bf565b612ab5602083018461227c565b9392505050565b7f4e487b7100000000000000000000000000000000000000000000000000000000600052601260045260246000fdfea264697066735822122007d80bdbb3fa50d2571f68f943879cba876ab755ac424cb48a8361945da7dbb564736f6c634300081c0033",
  "linkReferences": {},
  "deployedLinkReferences": {}
}